{
  "_format": "hh-sol-artifact-1",
  "contractName": "UserInfo",
  "sourceName": "contracts/UserInfo.sol",
  "abi": [
    {
      "anonymous": false,
      "inputs": [
        {
          "indexed": true,
          "internalType": "address",
          "name": "userAddress",
          "type": "address"
        },
        {
          "indexed": false,
          "internalType": "string",
          "name": "id",
          "type": "string"
        },
        {
          "indexed": false,
          "internalType": "string",
          "name": "name",
          "type": "string"
        },
        {
          "indexed": false,
          "internalType": "string",
          "name": "email",
          "type": "string"
        },
        {
          "indexed": false,
          "internalType": "string",
          "name": "postalAddress",
          "type": "string"
        },
        {
          "indexed": false,
          "internalType": "string",
          "name": "username",
          "type": "string"
        }
      ],
      "name": "UserUpdated",
      "type": "event"
    },
    {
      "inputs": [
        {
          "internalType": "address",
          "name": "userAddress",
          "type": "address"
        }
      ],
      "name": "getUser",
      "outputs": [
        {
          "components": [
            {
              "internalType": "string",
              "name": "id",
              "type": "string"
            },
            {
              "internalType": "string",
              "name": "name",
              "type": "string"
            },
            {
              "internalType": "string",
              "name": "email",
              "type": "string"
            },
            {
              "internalType": "string",
              "name": "postalAddress",
              "type": "string"
            },
            {
              "internalType": "string",
              "name": "username",
              "type": "string"
            }
          ],
          "internalType": "struct UserInfo.User",
          "name": "",
          "type": "tuple"
        }
      ],
      "stateMutability": "view",
      "type": "function"
    },
    {
      "inputs": [
        {
          "internalType": "string",
          "name": "id",
          "type": "string"
        },
        {
          "internalType": "string",
          "name": "name",
          "type": "string"
        },
        {
          "internalType": "string",
          "name": "email",
          "type": "string"
        },
        {
          "internalType": "string",
          "name": "postalAddress",
          "type": "string"
        },
        {
          "internalType": "string",
          "name": "username",
          "type": "string"
        }
      ],
      "name": "setUser",
      "outputs": [],
      "stateMutability": "nonpayable",
      "type": "function"
    },
    {
      "inputs": [
        {
          "internalType": "address",
          "name": "",
          "type": "address"
        }
      ],
      "name": "users",
      "outputs": [
        {
          "internalType": "string",
          "name": "id",
          "type": "string"
        },
        {
          "internalType": "string",
          "name": "name",
          "type": "string"
        },
        {
          "internalType": "string",
          "name": "email",
          "type": "string"
        },
        {
          "internalType": "string",
          "name": "postalAddress",
          "type": "string"
        },
        {
          "internalType": "string",
          "name": "username",
          "type": "string"
        }
      ],
      "stateMutability": "view",
      "type": "function"
    }
  ],
  "bytecode": "0x608060405234801561001057600080fd5b50611358806100206000396000f3fe608060405234801561001057600080fd5b50600436106100415760003560e01c80636f77926b14610046578063a87430ba14610076578063ded0d76a146100aa575b600080fd5b610060600480360381019061005b9190610b2e565b6100c6565b60405161006d9190610c7d565b60405180910390f35b610090600480360381019061008b9190610b2e565b6103f8565b6040516100a1959493929190610ce9565b60405180910390f35b6100c460048036038101906100bf9190610dc4565b6106d6565b005b6100ce610a8d565b6000808373ffffffffffffffffffffffffffffffffffffffff1673ffffffffffffffffffffffffffffffffffffffff1681526020019081526020016000206040518060a001604052908160008201805461012790610f10565b80601f016020809104026020016040519081016040528092919081815260200182805461015390610f10565b80156101a05780601f10610175576101008083540402835291602001916101a0565b820191906000526020600020905b81548152906001019060200180831161018357829003601f168201915b505050505081526020016001820180546101b990610f10565b80601f01602080910402602001604051908101604052809291908181526020018280546101e590610f10565b80156102325780601f1061020757610100808354040283529160200191610232565b820191906000526020600020905b81548152906001019060200180831161021557829003601f168201915b5050505050815260200160028201805461024b90610f10565b80601f016020809104026020016040519081016040528092919081815260200182805461027790610f10565b80156102c45780601f10610299576101008083540402835291602001916102c4565b820191906000526020600020905b8154815290600101906020018083116102a757829003601f168201915b505050505081526020016003820180546102dd90610f10565b80601f016020809104026020016040519081016040528092919081815260200182805461030990610f10565b80156103565780601f1061032b57610100808354040283529160200191610356565b820191906000526020600020905b81548152906001019060200180831161033957829003601f168201915b5050505050815260200160048201805461036f90610f10565b80601f016020809104026020016040519081016040528092919081815260200182805461039b90610f10565b80156103e85780601f106103bd576101008083540402835291602001916103e8565b820191906000526020600020905b8154815290600101906020018083116103cb57829003601f168201915b5050505050815250509050919050565b600060205280600052604060002060009150905080600001805461041b90610f10565b80601f016020809104026020016040519081016040528092919081815260200182805461044790610f10565b80156104945780601f1061046957610100808354040283529160200191610494565b820191906000526020600020905b81548152906001019060200180831161047757829003601f168201915b5050505050908060010180546104a990610f10565b80601f01602080910402602001604051908101604052809291908181526020018280546104d590610f10565b80156105225780601f106104f757610100808354040283529160200191610522565b820191906000526020600020905b81548152906001019060200180831161050557829003601f168201915b50505050509080600201805461053790610f10565b80601f016020809104026020016040519081016040528092919081815260200182805461056390610f10565b80156105b05780601f10610585576101008083540402835291602001916105b0565b820191906000526020600020905b81548152906001019060200180831161059357829003601f168201915b5050505050908060030180546105c590610f10565b80601f01602080910402602001604051908101604052809291908181526020018280546105f190610f10565b801561063e5780601f106106135761010080835404028352916020019161063e565b820191906000526020600020905b81548152906001019060200180831161062157829003601f168201915b50505050509080600401805461065390610f10565b80601f016020809104026020016040519081016040528092919081815260200182805461067f90610f10565b80156106cc5780601f106106a1576101008083540402835291602001916106cc565b820191906000526020600020905b8154815290600101906020018083116106af57829003601f168201915b5050505050905085565b6107156040518060400160405280601481526020017f48657265206973207468652073656e6465723a20000000000000000000000000815250336109ab565b6040518060a001604052808b8b8080601f016020809104026020016040519081016040528093929190818152602001838380828437600081840152601f19601f82011690508083019250505050505050815260200189898080601f016020809104026020016040519081016040528093929190818152602001838380828437600081840152601f19601f82011690508083019250505050505050815260200187878080601f016020809104026020016040519081016040528093929190818152602001838380828437600081840152601f19601f82011690508083019250505050505050815260200185858080601f016020809104026020016040519081016040528093929190818152602001838380828437600081840152601f19601f82011690508083019250505050505050815260200183838080601f016020809104026020016040519081016040528093929190818152602001838380828437600081840152601f19601f820116905080830192505050505050508152506000803373ffffffffffffffffffffffffffffffffffffffff1673ffffffffffffffffffffffffffffffffffffffff16815260200190815260200160002060008201518160000190816108e39190611126565b5060208201518160010190816108f99190611126565b50604082015181600201908161090f9190611126565b5060608201518160030190816109259190611126565b50608082015181600401908161093b9190611126565b509050503373ffffffffffffffffffffffffffffffffffffffff167f1f34688f6d99f40c394d23e645c31f695ee26b9be642fb83778e938f690e27d28b8b8b8b8b8b8b8b8b8b6040516109979a99989796959493929190611234565b60405180910390a250505050505050505050565b610a4382826040516024016109c19291906112c3565b6040516020818303038152906040527f319af333000000000000000000000000000000000000000000000000000000007bffffffffffffffffffffffffffffffffffffffffffffffffffffffff19166020820180517bffffffffffffffffffffffffffffffffffffffffffffffffffffffff8381831617835250505050610a47565b5050565b610a5e81610a56610a61610a82565b63ffffffff16565b50565b60006a636f6e736f6c652e6c6f679050600080835160208501845afa505050565b610abc819050919050565b6040518060a0016040528060608152602001606081526020016060815260200160608152602001606081525090565b610ac46112f3565b565b600080fd5b600080fd5b600073ffffffffffffffffffffffffffffffffffffffff82169050919050565b6000610afb82610ad0565b9050919050565b610b0b81610af0565b8114610b1657600080fd5b50565b600081359050610b2881610b02565b92915050565b600060208284031215610b4457610b43610ac6565b5b6000610b5284828501610b19565b91505092915050565b600081519050919050565b600082825260208201905092915050565b60005b83811015610b95578082015181840152602081019050610b7a565b60008484015250505050565b6000601f19601f8301169050919050565b6000610bbd82610b5b565b610bc78185610b66565b9350610bd7818560208601610b77565b610be081610ba1565b840191505092915050565b600060a0830160008301518482036000860152610c088282610bb2565b91505060208301518482036020860152610c228282610bb2565b91505060408301518482036040860152610c3c8282610bb2565b91505060608301518482036060860152610c568282610bb2565b91505060808301518482036080860152610c708282610bb2565b9150508091505092915050565b60006020820190508181036000830152610c978184610beb565b905092915050565b600082825260208201905092915050565b6000610cbb82610b5b565b610cc58185610c9f565b9350610cd5818560208601610b77565b610cde81610ba1565b840191505092915050565b600060a0820190508181036000830152610d038188610cb0565b90508181036020830152610d178187610cb0565b90508181036040830152610d2b8186610cb0565b90508181036060830152610d3f8185610cb0565b90508181036080830152610d538184610cb0565b90509695505050505050565b600080fd5b600080fd5b600080fd5b60008083601f840112610d8457610d83610d5f565b5b8235905067ffffffffffffffff811115610da157610da0610d64565b5b602083019150836001820283011115610dbd57610dbc610d69565b5b9250929050565b60008060008060008060008060008060a08b8d031215610de757610de6610ac6565b5b60008b013567ffffffffffffffff811115610e0557610e04610acb565b5b610e118d828e01610d6e565b9a509a505060208b013567ffffffffffffffff811115610e3457610e33610acb565b5b610e408d828e01610d6e565b985098505060408b013567ffffffffffffffff811115610e6357610e62610acb565b5b610e6f8d828e01610d6e565b965096505060608b013567ffffffffffffffff811115610e9257610e91610acb565b5b610e9e8d828e01610d6e565b945094505060808b013567ffffffffffffffff811115610ec157610ec0610acb565b5b610ecd8d828e01610d6e565b92509250509295989b9194979a5092959850565b7f4e487b7100000000000000000000000000000000000000000000000000000000600052602260045260246000fd5b60006002820490506001821680610f2857607f821691505b602082108103610f3b57610f3a610ee1565b5b50919050565b7f4e487b7100000000000000000000000000000000000000000000000000000000600052604160045260246000fd5b60008190508160005260206000209050919050565b60006020601f8301049050919050565b600082821b905092915050565b600060088302610fd27fffffffffffffffffffffffffffffffffffffffffffffffffffffffffffffffff82610f95565b610fdc8683610f95565b95508019841693508086168417925050509392505050565b6000819050919050565b6000819050919050565b600061102361101e61101984610ff4565b610ffe565b610ff4565b9050919050565b6000819050919050565b61103d83611008565b6110516110498261102a565b848454610fa2565b825550505050565b600090565b611066611059565b611071818484611034565b505050565b5b818110156110955761108a60008261105e565b600181019050611077565b5050565b601f8211156110da576110ab81610f70565b6110b484610f85565b810160208510156110c3578190505b6110d76110cf85610f85565b830182611076565b50505b505050565b600082821c905092915050565b60006110fd600019846008026110df565b1980831691505092915050565b600061111683836110ec565b9150826002028217905092915050565b61112f82610b5b565b67ffffffffffffffff81111561114857611147610f41565b5b6111528254610f10565b61115d828285611099565b600060209050601f831160018114611190576000841561117e578287015190505b611188858261110a565b8655506111f0565b601f19841661119e86610f70565b60005b828110156111c6578489015182556001820191506020850194506020810190506111a1565b868310156111e357848901516111df601f8916826110ec565b8355505b6001600288020188555050505b505050505050565b82818337600083830152505050565b60006112138385610c9f565b93506112208385846111f8565b61122983610ba1565b840190509392505050565b600060a082019050818103600083015261124f818c8e611207565b90508181036020830152611264818a8c611207565b9050818103604083015261127981888a611207565b9050818103606083015261128e818688611207565b905081810360808301526112a3818486611207565b90509b9a5050505050505050505050565b6112bd81610af0565b82525050565b600060408201905081810360008301526112dd8185610cb0565b90506112ec60208301846112b4565b9392505050565b7f4e487b7100000000000000000000000000000000000000000000000000000000600052605160045260246000fdfea26469706673582212207a084bd8a5a5926875ab40d58883326a8d04c2738db669c6746eca34df623abc64736f6c63430008180033",
  "linkReferences": {},
  "deployedLinkReferences": {}
}